H012026012820260127                                                                                                                                                                                                                                                                                                                                                    
20260127OR26012700001001    OR26012700001001    0016261466MRS. POMAT SUKCHAIVANIT                                                                                                                                                   0019222756DUSD000000000000001608OR26012700001001    108N                                                                           
20260127OR26012700001001    OR26012700001001    0016261466MRS. POMAT SUKCHAIVANIT                                                                                                                                                   0019222756DUSD000000000000001608OR26012700001001    108N                                                                           
20260127OR26012700001001    OR26012700001001    0016261466MRS. POMAT SUKCHAIVANIT                                                                                                                                                   0019222756DUSD000000000000001608OR26012700001001    108N                                                                           
20260127OR26012700001001    OR26012700001001    0016261466MRS. POMAT SUKCHAIVANIT                                                                                                                                                   0019222756DUSD000000000000001608OR26012700001001    108N                                                                           
20260127IR25122400013001    IR25122400013001    0022011676KASIKORNTHAI BANK LIMITED, LAO PDR                                                                                                                                        0999214290DUSD000000000009900000RPD11478xR1         108N                                                                           
DT1000005                                                                                                                                                                                                                                                                                                                                                              
