00KB001_GPSX_AREXA    SL00000220260127757  2026-01-28T01:33:01.195+07:00                                                                                                                                                                                                                                                                                                                                                         
010000000000000010982      2734111                            318131-S       000-00000                               000000000                                                                                 USD            CR0000000000001284191700000000000398985519PENRFD-IR25120100020001                                                                                                                     20260127     
010000000000000020982      2734111                            318131-S       000-00000                               000000000                                                                                 USD            CR0000000000001284191700000000000398985519PENRFD-IR25120100023001                                                                                                                     20260127     
010000000000000030982      2734111                            318231-G       000-00000                               000000000                                                                                 USD            CR0000000000000054356700000000000016888083PENRFD-IR25121500034001                                                                                                                     20260127     
010000000000000040982      2734111                            318231-G       000-00000                               000000000                                                                                 USD            CR0000000000000054356700000000000016888083PENRFD-IR25121500035001                                                                                                                     20260127     
010000000000000050982      2734111                            318231-G       000-00000                               000000000                                                                                 USD            CR0000000000000002790000000000000000866825PENRFD-OR25102000001001                                                                                                                     20260127     
010000000000000060982      2734111                            318231-G       000-00000                               000000000                                                                                 USD            CR0000000000000001110000000000000000344866PENRFD-OR25110700000001                                                                                                                     20260127     
010000000000000070982      1729012                            318231-G       000-00000                               610301001                                                                                 USD            DR0000000000000000200000000000000000062138ACRFEE-OR25112800020001                                                                                                                     20260127     
010000000000000080982      1729012                            318231-G       000-00000                               610301001                                                                                 USD            DR0000000000000000200000000000000000062138ACRFEE-OR25112800020003                                                                                                                     20260127     
010000000000000090982      1729012                            318231-G       000-17013                               610301001                                                                                 EUR            DR0000000000000000250000000000000000091975ACRFEE-OR25120100026001                                                                                                                     20260127     
010000000000000100982      2734111                            318231-G       000-00000                               000000000                                                                                 USD            DR0000000000000001100000000000000000341759PENRFD-OR26010600001002                                                                                                                     20260127     
010000000000000110982      2734111                            318231-G       000-00000                               000000000                                                                                 USD            CR0000000000000000200000000000000000062138PENRFD-OR26010900018001                                                                                                                     20260127     
010000000000000120982      2734111                            318231-G       000-00000                               000000000                                                                                 USD            CR0000000000000010000000000000000003106900PENRFD-OR26010900020001                                                                                                                     20260127     
010000000000000130982      2734111                            318231-G       000-00000                               000000000                                                                                 USD            CR0000000000000001000000000000000000310690PENRFD-OR26010900022001                                                                                                                     20260127     
010000000000000140982      2734111                            318231-G       000-00000                               000000000                                                                                 USD            CR0000000000000001000000000000000000310690PENRFD-OR26010900023001                                                                                                                     20260127     
010000000000000150982      2734111                            318231-G       000-00000                               000000000                                                                                 USD            CR0000000000000001000000000000000000310690PENRFD-OR26010900025001                                                                                                                     20260127     
010000000000000160982      2734111                            318231-G       000-00000                               000000000                                                                                 USD            CR0000000000000001000000000000000000310690PENRFD-OR26010900027001                                                                                                                     20260127     
010000000000000170982      2734111                            318231-G       000-00000                               000000000                                                                                 USD            CR0000000000000001000000000000000000310690PENRFD-OR26010900029001                                                                                                                     20260127     
010000000000000180982      2734111                            318231-G       000-00000                               000000000                                                                                 USD            CR0000000000000001000000000000000000310690PENRFD-OR26010900033001                                                                                                                     20260127     
010000000000000190982      2734111                            318231-G       000-00000                               000000000                                                                                 USD            CR0000000000000001000000000000000000310690PENRFD-OR26010900036001                                                                                                                     20260127     
010000000000000200982      2734111                            318231-G       000-00000                               000000000                                                                                 USD            CR0000000000000001000000000000000000310690PENRFD-OR26010900038001                                                                                                                     20260127     
010000000000000210982      2734111                            318231-G       000-00000                               000000000                                                                                 USD            CR0000000000000001000000000000000000310690PENRFD-OR26010900041001                                                                                                                     20260127     
010000000000000220982      2734111                            318231-G       000-00000                               000000000                                                                                 USD            CR0000000000000001000000000000000000310690PENRFD-OR26010900043001                                                                                                                     20260127     
010000000000000230982      2734111                            318231-G       000-00000                               000000000                                                                                 USD            CR0000000000000001000000000000000000310690PENRFD-OR26010900046001                                                                                                                     20260127     
010000000000000240982      2734111                            318231-G       000-00000                               000000000                                                                                 USD            CR0000000000000001000000000000000000310690PENRFD-OR26010900047001                                                                                                                     20260127     
010000000000000250982      2734111                            318231-G       000-00000                               000000000                                                                                 USD            CR0000000000000001000000000000000000310690PENRFD-OR26010900048001                                                                                                                     20260127     
010000000000000260982      2734111                            318231-G       000-00000                               000000000                                                                                 USD            CR0000000000000001000000000000000000310690PENRFD-OR26011200005001                                                                                                                     20260127     
010000000000000270982      2734111                            318231-G       000-00000                               000000000                                                                                 USD            CR0000000000000001000000000000000000310690PENRFD-OR26011200013001                                                                                                                     20260127     
010000000000000280982      2734111                            318231-G       000-00000                               000000000                                                                                 USD            CR0000000000000001000000000000000000310690PENRFD-OR26011200014001                                                                                                                     20260127     
010000000000000290982      2734111                            318231-G       000-00000                               000000000                                                                                 USD            CR0000000000000001000000000000000000310690PENRFD-OR26011400000001                                                                                                                     20260127     
010000000000000300982      2734111                            318028-S       000-00000                               000000000                                                                                 USD            CR0000000000000051000000000000000015845190PENRFD-OR26011900004001                                                                                                                     20260127     
010000000000000310982      2732109                            318052-S       000-00000                               000000000                                                                                 CHF            CR0000000000000050000000000000000019973350UNCLAM-IR25112200004001                                                                                                                     20260127     
010000000000000320982      2732109                            318052-S       000-00000                               000000000                                                                                 CHF            CR0000000000000050000000000000000019973350UNCLAM-IR25112200005001                                                                                                                     20260127     
010000000000000330982      2732109                            318052-S       000-00000                               000000000                                                                                 CHF            CR0000000000000050000000000000000019973350UNCLAM-IR25112300009001                                                                                                                     20260127     
010000000000000340982      2732109                            318052-S       000-00000                               000000000                                                                                 CHF            CR0000000000000050000000000000000019973350UNCLAM-IR25112300012001                                                                                                                     20260127     
010000000000000350982      2732109                            318052-S       000-00000                               000000000                                                                                 CHF            CR0000000000000050000000000000000019973350UNCLAM-IR25112300013001                                                                                                                     20260127     
010000000000000360982      2732109                            318052-S       000-00000                               000000000                                                                                 CHF            CR0000000000000050000000000000000019973350UNCLAM-IR25112300014001                                                                                                                     20260127     
010000000000000370982      2732109                            318052-S       000-00000                               000000000                                                                                 CHF            CR0000000000000050000000000000000019973350UNCLAM-IR25112400007001                                                                                                                     20260127     
010000000000000380982      2732109                            318052-S       000-00000                               000000000                                                                                 CHF            CR0000000000000040000000000000000015978680UNCLAM-IR25112400007002                                                                                                                     20260127     
010000000000000390982      2732109                            318052-S       000-00000                               000000000                                                                                 CHF            CR0000000000000002000000000000000000798934UNCLAM-IR25112400008002                                                                                                                     20260127     
010000000000000400982      2732109                            318052-S       000-00000                               000000000                                                                                 CHF            CR0000000000000002000000000000000000798934UNCLAM-IR25112400014001                                                                                                                     20260127     
010000000000000410982      2732109                            318052-S       000-00000                               000000000                                                                                 CHF            CR0000000000000050000000000000000019973350UNCLAM-IR25112400015001                                                                                                                     20260127     
010000000000000420982      2732109                            318052-S       000-00000                               000000000                                                                                 CHF            CR0000000000000040000000000000000015978680UNCLAM-IR25112400016001                                                                                                                     20260127     
010000000000000430982      2732109                            318052-S       000-00000                               000000000                                                                                 CHF            CR0000000000000040000000000000000015978680UNCLAM-IR25120100063001                                                                                                                     20260127     
010000000000000440982      2732109                            318052-S       000-00000                               000000000                                                                                 CHF            CR0000000000000049750000000000000019873483UNCLAM-IR25120500037002                                                                                                                     20260127     
010000000000000450982      2732109                            318052-S       000-00000                               000000000                                                                                 CHF            CR0000000000000049750000000000000019873483UNCLAM-IR25120700008001                                                                                                                     20260127     
010000000000000460982      2732109                            318052-S       000-00000                               000000000                                                                                 CHF            CR0000000000000005000000000000000001997335UNCLAM-IR25120900029001                                                                                                                     20260127     
010000000000000470982      2732109                            318034-S       000-00000                               000000000                                                                                 CHF            CR0000000000000045000000000000000017976015UNCLAM-IR25120900046001                                                                                                                     20260127     
010000000000000480982      2042002                            318231-G       000-00000                               000000000                                                                                 NZD            CR0000000000000010000000000000000001854210CSHREC-IR25112700040001                                                                                                                     20260127     
010000000000000490982      2042002                            318231-G       000-00000                               000000000                                                                                 NZD            CR0000000000000010000000000000000001854210CSHREC-IR25112700048001                                                                                                                     20260127     
010000000000000500982      2042002                            318231-G       000-00000                               000000000                                                                                 NZD            CR0000000000000010000000000000000001854210CSHREC-IR25112800015001                                                                                                                     20260127     
010000000000000510982      2042002                            318231-G       000-00000                               000000000                                                                                 NZD            CR0000000000000010000000000000000001854210CSHREC-IR25120200019001                                                                                                                     20260127     
010000000000000520982      2042002                            318231-G       000-00000                               000000000                                                                                 USD            CR0000000000000150000000000000000046603500CSHREC-IR25092500000001                                                                                                                     20260127     
010000000000000530982      2042002                            318231-G       000-00000                               000000000                                                                                 USD            CR0000000000000050000000000000000015534500CSHREC-IR25100700003001                                                                                                                     20260127     
010000000000000540982      2042002                            318231-G       000-00000                               000000000                                                                                 USD            CR0000000000000012000000000000000003728280CSHREC-IR25100800011001                                                                                                                     20260127     
010000000000000550982      2042002                            318231-G       000-00000                               000000000                                                                                 USD            CR0000000000000012000000000000000003728280CSHREC-IR25100800014001                                                                                                                     20260127     
010000000000000560982      2042002                            null-X         000-00000                               000000000                                                                                 USD            CR0000000000000000600000000000000000186414CSHREC-IR25101000005001                                                                                                                     20260127     
010000000000000570982      2042002                            318042-S       000-00000                               000000000                                                                                 USD            CR0000000000000000400000000000000000124276CSHREC-IR25101000022001                                                                                                                     20260127     
010000000000000580982      2042002                            318028-S       000-00000                               000000000                                                                                 USD            CR0000000000001000000000000000000310690000CSHREC-IR25101000024004                                                                                                                     20260127     
010000000000000590982      2042002                            318231-G       000-00000                               000000000                                                                                 USD            CR0000000000000900000000000000000279621000CSHREC-IR25101000024005                                                                                                                     20260127     
010000000000000600982      2042002                            318052-S       000-00000                               000000000                                                                                 USD            CR0000000000000013000000000000000004038970CSHREC-IR25101400002001                                                                                                                     20260127     
010000000000000610982      2042002                            318052-S       000-00000                               000000000                                                                                 USD            CR0000000000000013000000000000000004038970CSHREC-IR25101400004001                                                                                                                     20260127     
010000000000000620982      2042002                            318052-S       000-00000                               000000000                                                                                 USD            CR0000000000000013000000000000000004038970CSHREC-IR25101400005001                                                                                                                     20260127     
010000000000000630982      2042002                            318052-S       000-00000                               000000000                                                                                 USD            CR0000000000000013000000000000000004038970CSHREC-IR25101400007001                                                                                                                     20260127     
010000000000000640982      2042002                            318052-S       000-00000                               000000000                                                                                 USD            CR0000000000000013000000000000000004038970CSHREC-IR25101400008001                                                                                                                     20260127     
010000000000000650982      2042002                            318052-S       000-00000                               000000000                                                                                 USD            CR0000000000000013000000000000000004038970CSHREC-IR25101400010001                                                                                                                     20260127     
010000000000000660982      2042002                            318052-S       000-00000                               000000000                                                                                 USD            CR0000000000000010000000000000000003106900CSHREC-IR25101400019003                                                                                                                     20260127     
010000000000000670982      2042002                            318231-G       000-00000                               000000000                                                                                 USD            CR0000000000001980000000000000000615166200CSHREC-IR25101400020002                                                                                                                     20260127     
010000000000000680982      2042002                            318052-S       000-00000                               000000000                                                                                 USD            CR0000000000000030000000000000000009320700CSHREC-IR25101400027001                                                                                                                     20260127     
010000000000000690982      2042002                            318052-S       000-00000                               000000000                                                                                 USD            CR0000000000000010000000000000000003106900CSHREC-IR25101400029001                                                                                                                     20260127     
010000000000000700982      2042002                            318052-S       000-00000                               000000000                                                                                 USD            CR0000000000000000100000000000000000031069CSHREC-IR25101400030002                                                                                                                     20260127     
010000000000000710982      2042002                            318231-G       000-00000                               000000000                                                                                 USD            CR0000000000002100002500000000000652449777CSHREC-IR25101400041001                                                                                                                     20260127     
010000000000000720982      2042002                            318052-S       000-00000                               000000000                                                                                 USD            CR0000000000000010000000000000000003106900CSHREC-IR25101400043002                                                                                                                     20260127     
010000000000000730982      2042002                            318052-S       000-00000                               000000000                                                                                 USD            CR0000000000000010000000000000000003106900CSHREC-IR25101400049002                                                                                                                     20260127     
010000000000000740982      2042002                            318052-S       000-00000                               000000000                                                                                 USD            CR0000000000000010000000000000000003106900CSHREC-IR25101400055001                                                                                                                     20260127     
010000000000000750982      2042002                            318052-S       000-00000                               000000000                                                                                 USD            CR0000000000001000000000000000000310690000CSHREC-IR25101400058002                                                                                                                     20260127     
010000000000000760982      2042002                            318052-S       000-00000                               000000000                                                                                 USD            CR0000000000001000000000000000000310690000CSHREC-IR25101400059001                                                                                                                     20260127     
010000000000000770982      2042002                            318231-G       000-00000                               000000000                                                                                 USD            CR0000000000000970010000000000000301372407CSHREC-IR25101400059003                                                                                                                     20260127     
010000000000000780982      2042002                            318231-G       000-00000                               000000000                                                                                 USD            CR0000000000001000000000000000000310690000CSHREC-IR25101400060001                                                                                                                     20260127     
010000000000000790982      2042002                            318052-S       000-00000                               000000000                                                                                 USD            CR0000000000000000600000000000000000186414CSHREC-IR25101400062001                                                                                                                     20260127     
010000000000000800982      2042002                            318231-G       000-00000                               000000000                                                                                 USD            CR0000000000000520000000000000000161558800CSHREC-IR25101400062002                                                                                                                     20260127     
010000000000000810982      2042002                            318231-G       000-00000                               000000000                                                                                 USD            CR0000000000000500000000000000000155345000CSHREC-IR25101600017001                                                                                                                     20260127     
010000000000000820982      2042002                            318231-G       000-00000                               000000000                                                                                 USD            CR0000000000000149999900000000000046603469CSHREC-IR25101600024001                                                                                                                     20260127     
010000000000000830982      2042002                            318231-G       000-00000                               000000000                                                                                 USD            CR0000000000001000000000000000000310690000CSHREC-IR25101600059001                                                                                                                     20260127     
010000000000000840982      2042002                            318052-S       000-00000                               000000000                                                                                 USD            CR0000000000000013000000000000000004038970CSHREC-IR25101700011001                                                                                                                     20260127     
010000000000000850982      2042002                            318052-S       000-00000                               000000000                                                                                 USD            CR0000000000000013000000000000000004038970CSHREC-IR25101700014001                                                                                                                     20260127     
010000000000000860982      2042002                            318052-S       000-00000                               000000000                                                                                 USD            CR0000000000000013000000000000000004038970CSHREC-IR25101700015001                                                                                                                     20260127     
010000000000000870982      2042002                            318052-S       000-00000                               000000000                                                                                 USD            CR0000000000000013000000000000000004038970CSHREC-IR25101700017001                                                                                                                     20260127     
010000000000000880982      2042002                            318052-S       000-00000                               000000000                                                                                 USD            CR0000000000000013000000000000000004038970CSHREC-IR25101700018002                                                                                                                     20260127     
010000000000000890982      2042002                            318052-S       000-00000                               000000000                                                                                 USD            CR0000000000000013000000000000000004038970CSHREC-IR25101700022001                                                                                                                     20260127     
010000000000000900982      2042002                            318052-S       000-00000                               000000000                                                                                 USD            CR0000000000000013000000000000000004038970CSHREC-IR25101700027001                                                                                                                     20260127     
010000000000000910982      2042002                            318052-S       000-00000                               000000000                                                                                 USD            CR0000000000000200000000000000000062138000CSHREC-IR25102000003001                                                                                                                     20260127     
010000000000000920982      2042002                            318231-G       000-00000                               000000000                                                                                 USD            CR0000000000000400000000000000000124276000CSHREC-IR25102000004001                                                                                                                     20260127     
010000000000000930982      2042002                            318231-G       000-00000                               000000000                                                                                 USD            CR0000000000000400000000000000000124276000CSHREC-IR25102000034001                                                                                                                     20260127     
010000000000000940982      2042002                            318231-G       000-00000                               000000000                                                                                 USD            CR0000000000000400000000000000000124276000CSHREC-IR25102000035001                                                                                                                     20260127     
010000000000000950982      2042002                            318231-G       000-00000                               000000000                                                                                 USD            CR0000000000000400000000000000000124276000CSHREC-IR25102000040001                                                                                                                     20260127     
010000000000000960982      2042002                            318231-G       000-00000                               000000000                                                                                 USD            CR0000000000000400000000000000000124276000CSHREC-IR25102000040002                                                                                                                     20260127     
010000000000000970982      2042002                            318231-G       000-00000                               000000000                                                                                 USD            CR0000000000000400000000000000000124276000CSHREC-IR25102000040005                                                                                                                     20260127     
010000000000000980982      2042002                            318231-G       000-00000                               000000000                                                                                 USD            CR0000000000000400000000000000000124276000CSHREC-IR25102000040006                                                                                                                     20260127     
010000000000000990982      2042002                            318231-G       000-00000                               000000000                                                                                 USD            CR0000000000000200000000000000000062138000CSHREC-IR25102100006001                                                                                                                     20260127     
010000000000001000982      2042002                            318052-S       000-00000                               000000000                                                                                 USD            CR0000000000003000000000000000000932070000CSHREC-IR25102200005001                                                                                                                     20260127     
010000000000001010982      2042002                            318231-G       000-00000                               000000000                                                                                 USD            CR0000000000000009999900000000000003106869CSHREC-IR25102700017001                                                                                                                     20260127     
010000000000001020982      2042002                            318231-G       000-00000                               000000000                                                                                 USD            CR0000000000000271431400000000000084331022CSHREC-IR25102900016002                                                                                                                     20260127     
010000000000001030982      2042002                            318052-S       000-00000                               000000000                                                                                 USD            CR0000000000000056054500000000000017415573CSHREC-IR25102900023001                                                                                                                     20260127     
010000000000001040982      2042002                            318231-G       000-00000                               000000000                                                                                 USD            CR0000000000000399990000000000000124272893CSHREC-IR25103000004001                                                                                                                     20260127     
010000000000001050982      2042002                            318231-G       000-00000                               000000000                                                                                 USD            CR0000000000000399990000000000000124272893CSHREC-IR25103000004002                                                                                                                     20260127     
010000000000001060982      2042002                            318231-G       000-00000                               000000000                                                                                 USD            CR0000000000000500000000000000000155345000CSHREC-IR25103000015002                                                                                                                     20260127     
010000000000001070982      2042002                            318052-S       000-00000                               000000000                                                                                 USD            CR0000000000000500000000000000000155345000CSHREC-IR25103000016001                                                                                                                     20260127     
010000000000001080982      2042002                            318231-G       000-00000                               000000000                                                                                 USD            CR0000000000000399990000000000000124272893CSHREC-IR25103100003001                                                                                                                     20260127     
010000000000001090982      2042002                            318231-G       000-00000                               000000000                                                                                 USD            CR0000000000000399990000000000000124272893CSHREC-IR25103100004001                                                                                                                     20260127     
010000000000001100982      2042002                            318231-G       000-00000                               000000000                                                                                 USD            CR0000000000000399990000000000000124272893CSHREC-IR25103100006001                                                                                                                     20260127     
010000000000001110982      2042002                            318231-G       000-00000                               000000000                                                                                 USD            CR0000000000000399990000000000000124272893CSHREC-IR25103100010001                                                                                                                     20260127     
010000000000001120982      2042002                            318231-G       000-00000                               000000000                                                                                 USD            CR0000000000000399990000000000000124272893CSHREC-IR25103100013001                                                                                                                     20260127     
010000000000001130982      2042002                            318231-G       000-00000                               000000000                                                                                 USD            CR0000000000000399990000000000000124272893CSHREC-IR25103100015001                                                                                                                     20260127     
010000000000001140982      2042002                            318052-S       000-00000                               000000000                                                                                 USD            CR0000000000000010000000000000000003106900CSHREC-IR25110300005001                                                                                                                     20260127     
010000000000001150982      2042002                            318052-S       000-00000                               000000000                                                                                 USD            CR0000000000000010000000000000000003106900CSHREC-IR25110300006001                                                                                                                     20260127     
010000000000001160982      2042002                            318231-G       000-00000                               000000000                                                                                 USD            CR0000000000000399990000000000000124272893CSHREC-IR25110300011001                                                                                                                     20260127     
010000000000001170982      2042002                            318231-G       000-00000                               000000000                                                                                 USD            CR0000000000000399990000000000000124272893CSHREC-IR25110300012001                                                                                                                     20260127     
010000000000001180982      2042002                            318231-G       000-00000                               000000000                                                                                 USD            CR0000000000000399990000000000000124272893CSHREC-IR25110400003001                                                                                                                     20260127     
010000000000001190982      2042002                            318231-G       000-00000                               000000000                                                                                 USD            CR0000000000000399990000000000000124272893CSHREC-IR25110400006001                                                                                                                     20260127     
010000000000001200982      2042002                            318231-G       000-00000                               000000000                                                                                 USD            CR0000000000000399990000000000000124272893CSHREC-IR25110400006002                                                                                                                     20260127     
010000000000001210982      2042002                            318231-G       000-00000                               000000000                                                                                 USD            CR0000000000000200000000000000000062138000CSHREC-IR25110500001001                                                                                                                     20260127     
010000000000001220982      2042002                            318231-G       000-00000                               000000000                                                                                 USD            CR0000000000000399990000000000000124272893CSHREC-IR25110500002001                                                                                                                     20260127     
010000000000001230982      2042002                            318231-G       000-00000                               000000000                                                                                 USD            CR0000000000000399990000000000000124272893CSHREC-IR25110500003001                                                                                                                     20260127     
010000000000001240982      2042002                            318052-S       000-00000                               000000000                                                                                 USD            CR0000000000000071875300000000000022330937CSHREC-IR25110500008001                                                                                                                     20260127     
010000000000001250982      2042002                            318231-G       000-00000                               000000000                                                                                 USD            CR0000000000000000600000000000000000186414CSHREC-IR25110500015001                                                                                                                     20260127     
010000000000001260982      2042002                            318231-G       000-00000                               000000000                                                                                 USD            CR0000000000000000600000000000000000186414CSHREC-IR25110500018001                                                                                                                     20260127     
010000000000001270982      2042002                            318004-S       000-00000                               000000000                                                                                 USD            CR0000000000000001110000000000000000344866CSHREC-IR25110600009001                                                                                                                     20260127     
010000000000001280982      2042002                            318052-S       000-00000                               000000000                                                                                 USD            CR0000000000001236050000000000000384028374CSHREC-IR25110700011001                                                                                                                     20260127     
010000000000001290982      2042002                            318231-G       000-00000                               000000000                                                                                 USD            CR0000000000000003279400000000000001018877CSHREC-IR25110700015001                                                                                                                     20260127     
010000000000001300982      2042002                            318231-G       000-00000                               000000000                                                                                 USD            CR0000000000000012000000000000000003728280CSHREC-IR25111000002001                                                                                                                     20260127     
010000000000001310982      2042002                            318231-G       000-00000                               000000000                                                                                 USD            CR0000000000000000600000000000000000186414CSHREC-IR25111000006001                                                                                                                     20260127     
010000000000001320982      2042002                            318231-G       000-00000                               000000000                                                                                 USD            CR0000000000000160000000000000000049710400CSHREC-IR25111000012001                                                                                                                     20260127     
010000000000001330982      2042002                            318231-G       000-00000                               000000000                                                                                 USD            CR0000000000000160000000000000000049710400CSHREC-IR25111000013001                                                                                                                     20260127     
010000000000001340982      2042002                            318231-G       000-00000                               000000000                                                                                 USD            CR0000000000000160030000000000000049719721CSHREC-IR25111000014001                                                                                                                     20260127     
010000000000001350982      2042002                            318231-G       000-00000                               000000000                                                                                 USD            CR0000000000000012000000000000000003728280CSHREC-IR25111100006001                                                                                                                     20260127     
010000000000001360982      2042002                            318231-G       000-00000                               000000000                                                                                 USD            CR0000000000009434472400000000002931196230CSHREC-IR25111700012001                                                                                                                     20260127     
010000000000001370982      2042002                            318231-G       000-00000                               000000000                                                                                 USD            CR0000000000000012000000000000000003728280CSHREC-IR25112100015001                                                                                                                     20260127     
010000000000001380982      2042002                            318131-S       000-00000                               000000000                                                                                 USD            CR0000000000000010010000000000000003110007CSHREC-IR25112300002001                                                                                                                     20260127     
010000000000001390982      2042002                            318231-G       000-00000                               000000000                                                                                 USD            CR0000000000000600000000000000000186414000CSHREC-IR25112400020001                                                                                                                     20260127     
010000000000001400982      2042002                            318231-G       000-00000                               000000000                                                                                 USD            CR0000000000000260631600000000000080975632CSHREC-IR25112400021001                                                                                                                     20260127     
010000000000001410982      2042002                            318231-G       000-00000                               000000000                                                                                 USD            CR0000000000018494370000000000005746015815CSHREC-IR25112600024002                                                                                                                     20260127     
010000000000001420982      2042002                            318231-G       000-00000                               000000000                                                                                 USD            CR0000000000001000000000000000000310690000CSHREC-IR25112600051001                                                                                                                     20260127     
010000000000001430982      2042002                            318231-G       000-00000                               000000000                                                                                 USD            CR0000000000000161000000000000000050021090CSHREC-IR25112600065001                                                                                                                     20260127     
010000000000001440982      2042002                            318231-G       000-00000                               000000000                                                                                 USD            CR0000000000001000000000000000000310690000CSHREC-IR25112700004001                                                                                                                     20260127     
010000000000001450982      2042002                            318231-G       000-00000                               000000000                                                                                 USD            CR0000000000001000000000000000000310690000CSHREC-IR25112700005001                                                                                                                     20260127     
010000000000001460982      2042002                            318231-G       000-00000                               000000000                                                                                 USD            CR0000000000000010000000000000000003106900CSHREC-IR25112700007001                                                                                                                     20260127     
010000000000001470982      2042002                            318052-S       000-00000                               000000000                                                                                 USD            CR0000000001054104000000000000327499571760CSHREC-IR25112700025001                                                                                                                     20260127     
010000000000001480982      2042002                            318231-G       000-00000                               000000000                                                                                 USD            CR0000000000001000000000000000000310690000CSHREC-IR25112700028002                                                                                                                     20260127     
010000000000001490982      2042002                            318231-G       000-00000                               000000000                                                                                 USD            CR0000000000000669040000000000000207864038CSHREC-IR25112800013001                                                                                                                     20260127     
010000000000001500982      2042002                            318231-G       000-00000                               000000000                                                                                 USD            CR0000000000000300000000000000000093207000CSHREC-IR25113000012001                                                                                                                     20260127     
010000000000001510982      2042002                            318231-G       000-00000                               000000000                                                                                 USD            CR0000000000001000000000000000000310690000CSHREC-IR25113000019001                                                                                                                     20260127     
010000000000001520982      2042002                            318231-G       000-00000                               000000000                                                                                 USD            CR0000000000002743849500000000000852486601CSHREC-IR25120100019001                                                                                                                     20260127     
010000000000001530982      2042002                            318231-G       000-00000                               000000000                                                                                 USD            CR0000000000009671976500000000003004986379CSHREC-IR25120100021001                                                                                                                     20260127     
010000000000001540982      2042002                            318231-G       000-00000                               000000000                                                                                 USD            CR0000000000002743849500000000000852486601CSHREC-IR25120100024002                                                                                                                     20260127     
010000000000001550982      2042002                            318131-S       000-00000                               000000000                                                                                 USD            CR0000000000001000000000000000000310690000CSHREC-IR25120100024003                                                                                                                     20260127     
010000000000001560982      2042002                            318231-G       000-00000                               000000000                                                                                 USD            CR0000000000009671976500000000003004986379CSHREC-IR25120100025001                                                                                                                     20260127     
010000000000001570982      2042002                            318231-G       000-00000                               000000000                                                                                 USD            CR0000000000009671976500000000003004986379CSHREC-IR25120100038001                                                                                                                     20260127     
010000000000001580982      2042002                            318231-G       000-00000                               000000000                                                                                 USD            CR0000000000040766747400000000012665820750CSHREC-IR25120200059001                                                                                                                     20260127     
010000000000001590982      2042002                            318231-G       000-00000                               000000000                                                                                 USD            CR0000000000020333373700000000006317375875CSHREC-IR25120200063002                                                                                                                     20260127     
010000000000001600982      2042002                            318231-G       000-00000                               000000000                                                                                 USD            CR0000000000020264373700000000006295938265CSHREC-IR25120200063003                                                                                                                     20260127     
010000000000001610982      2042002                            318231-G       000-00000                               000000000                                                                                 USD            CR0000000000040806747400000000012678248350CSHREC-IR25120200064001                                                                                                                     20260127     
010000000000001620982      2042002                            318231-G       000-00000                               000000000                                                                                 USD            CR0000000000000500000000000000000155345000CSHREC-IR25120300013001                                                                                                                     20260127     
010000000000001630982      2042002                            318231-G       000-00000                               000000000                                                                                 USD            CR0000000000000100000000000000000031069000CSHREC-IR25120400090003                                                                                                                     20260127     
010000000000001640982      2042002                            318052-S       000-00000                               000000000                                                                                 USD            CR0000000000000010000000000000000003106900CSHREC-IR25120400090004                                                                                                                     20260127     
010000000000001650982      2042002                            318231-G       000-00000                               000000000                                                                                 USD            CR0000000000020433373700000000006348444875CSHREC-IR25120400090005                                                                                                                     20260127     
010000000000001660982      2042002                            318231-G       000-00000                               000000000                                                                                 USD            CR0000000000001500020000000000000466041214CSHREC-IR25120400090006                                                                                                                     20260127     
010000000000001670982      2042002                            318231-G       000-00000                               000000000                                                                                 USD            CR0000000000020433373700000000006348444875CSHREC-IR25120400094001                                                                                                                     20260127     
010000000000001680982      2042002                            318231-G       000-00000                               000000000                                                                                 USD            CR0000000000000520000000000000000161558800CSHREC-IR25120400095001                                                                                                                     20260127     
010000000000001690982      2042002                            318231-G       000-00000                               000000000                                                                                 USD            CR0000000000000520000000000000000161558800CSHREC-IR25120400096001                                                                                                                     20260127     
010000000000001700982      2042002                            318231-G       000-00000                               000000000                                                                                 USD            CR0000000000000330000000000000000102527700CSHREC-IR25120400097001                                                                                                                     20260127     
010000000000001710982      2042002                            318231-G       000-00000                               000000000                                                                                 USD            CR0000000000001500000000000000000466035000CSHREC-IR25120400101002                                                                                                                     20260127     
010000000000001720982      2042002                            318231-G       000-00000                               000000000                                                                                 USD            CR0000000000000600100000000000000186445069CSHREC-IR25120400107001                                                                                                                     20260127     
010000000000001730982      2042002                            318231-G       000-00000                               000000000                                                                                 USD            CR0000000000020223373700000000006283199975CSHREC-IR25120400120001                                                                                                                     20260127     
010000000000001740982      2042002                            318231-G       000-00000                               000000000                                                                                 USD            CR0000000000020333373700000000006317375875CSHREC-IR25120500016002                                                                                                                     20260127     
010000000000001750982      2042002                            318231-G       000-00000                               000000000                                                                                 USD            CR0000000000020333373700000000006317375875CSHREC-IR25120500017002                                                                                                                     20260127     
010000000000001760982      2042002                            318231-G       000-00000                               000000000                                                                                 USD            CR0000000000264899520000000000082301631869CSHREC-IR25120500032001                                                                                                                     20260127     
010000000000001770982      2042002                            318231-G       000-00000                               000000000                                                                                 USD            CR0000000000001596004000000000000495862483CSHREC-IR25120600008001                                                                                                                     20260127     
010000000000001780982      2042002                            318231-G       000-00000                               000000000                                                                                 USD            CR0000000000039866747400000000012386199750CSHREC-IR25120700014001                                                                                                                     20260127     
010000000000001790982      2042002                            318231-G       000-00000                               000000000                                                                                 USD            CR0000000000020433373700000000006348444875CSHREC-IR25120700016001                                                                                                                     20260127     
010000000000001800982      2042002                            318231-G       000-00000                               000000000                                                                                 USD            CR0000000000000600150000000000000186460604CSHREC-IR25120800003002                                                                                                                     20260127     
010000000000001810982      2042002                            318052-S       000-00000                               000000000                                                                                 USD            CR0000000000000161000000000000000050021090CSHREC-IR25120800025001                                                                                                                     20260127     
010000000000001820982      2042002                            318231-G       000-00000                               000000000                                                                                 USD            CR0000000000000100000000000000000031069000CSHREC-IR25120800030001                                                                                                                     20260127     
010000000000001830982      2042002                            318231-G       000-00000                               000000000                                                                                 USD            CR0000000000000070000000000000000021748300CSHREC-IR25120800031002                                                                                                                     20260127     
010000000000001840982      2042002                            318052-S       000-00000                               000000000                                                                                 USD            DR0000000000000161000000000000000050021090CSHREC-IR25120900002001                                                                                                                     20260127     
010000000000001850982      2042002                            318231-G       000-00000                               000000000                                                                                 USD            CR0000000000000200000000000000000062138000CSHREC-IR25120900012001                                                                                                                     20260127     
010000000000001860982      2042002                            318231-G       000-00000                               000000000                                                                                 USD            CR0000000000020433373700000000006348444875CSHREC-IR25120900036004                                                                                                                     20260127     
010000000000001870982      2042002                            318231-G       000-00000                               000000000                                                                                 USD            CR0000000000020333373700000000006317375875CSHREC-IR25120900040002                                                                                                                     20260127     
010000000000001880982      2042002                            318052-S       000-00000                               000000000                                                                                 USD            CR0000000000000051000000000000000015845190CSHREC-IR25121200001001                                                                                                                     20260127     
010000000000001890982      2042002                            318231-G       000-00000                               000000000                                                                                 USD            CR0000000000000600100000000000000186445069CSHREC-IR25121200007001                                                                                                                     20260127     
010000000000001900982      2042002                            318231-G       000-00000                               000000000                                                                                 USD            CR0000000000000305000000000000000094760450CSHREC-IR25121600023001                                                                                                                     20260127     
010000000000001910982      2042002                            318012-S       000-00000                               000000000                                                                                 USD            CR0000000000000000007100000000000000002206CSHREC-IR25121600038001                                                                                                                     20260127     
010000000000001920982      2042002                            318052-S       000-00000                               000000000                                                                                 USD            CR0000000000000046203400000000000014354934CSHREC-IR25121800011001                                                                                                                     20260127     
010000000000001930982      2042002                            318231-G       000-00000                               000000000                                                                                 USD            CR0000000000000019000100000000000005903141CSHREC-IR25121900007001                                                                                                                     20260127     
010000000000001940982      2042002                            318246-S       000-00000                               000000000                                                                                 USD            DR0000000000000000007100000000000000002206CSHREC-IR25122200018001                                                                                                                     20260127     
010000000000001950982      2042002                            318052-S       000-00000                               000000000                                                                                 USD            CR0000000000000100000000000000000031069000CSHREC-IR25122400017001                                                                                                                     20260127     
010000000000001960982      2042002                            318052-S       000-00000                               000000000                                                                                 USD            CR0000000000000010000000000000000003106900CSHREC-IR25122400018001                                                                                                                     20260127     
010000000000001970982      2042002                            318052-S       000-00000                               000000000                                                                                 USD            CR0000000000000010000000000000000003106900CSHREC-IR25122400019002                                                                                                                     20260127     
010000000000001980982      2042002                            318052-S       000-00000                               000000000                                                                                 USD            CR0000000000000012000000000000000003728280CSHREC-IR25122400020001                                                                                                                     20260127     
010000000000001990982      2042002                            318231-G       000-00000                               000000000                                                                                 USD            CR0000000000000500000000000000000155345000CSHREC-IR25122400022001                                                                                                                     20260127     
010000000000002000982      2042002                            318231-G       000-00000                               000000000                                                                                 USD            CR0000000000000050000000000000000015534500CSHREC-IR26010500021001                                                                                                                     20260127     
010000000000002010982      2042002                            318052-S       000-00000                               000000000                                                                                 USD            CR0000000000000090288200000000000028051641CSHREC-IR26010500026001                                                                                                                     20260127     
010000000000002020982      2042002                            318052-S       000-00000                               000000000                                                                                 USD            CR0000000000000090288200000000000028051641CSHREC-IR26010500027001                                                                                                                     20260127     
010000000000002030982      2042002                            318231-G       000-00000                               000000000                                                                                 USD            CR0000000000000300000000000000000093207000CSHREC-IR26010700003002                                                                                                                     20260127     
010000000000002040982      2042002                            318052-S       000-00000                               000000000                                                                                 USD            CR0000000000000298988000000000000092892582CSHREC-IR26010700017001                                                                                                                     20260127     
010000000000002050982      2042002                            318231-G       000-00000                               000000000                                                                                 USD            CR0000000000000050000000000000000015534500CSHREC-IR26010700023002                                                                                                                     20260127     
010000000000002060982      2042002                            318052-S       000-00000                               000000000                                                                                 USD            CR0000000000000049850000000000000015487896CSHREC-IR26011200016001                                                                                                                     20260127     
010000000000002070982      2042002                            318052-S       000-00000                               000000000                                                                                 USD            CR0000000000001469581800000000000456584369CSHREC-IR26011300022001                                                                                                                     20260127     
010000000000002080982      2042002                            318231-G       000-00000                               000000000                                                                                 USD            CR0000000000000555550000000000000172603830CSHREC-IR26011500023001                                                                                                                     20260127     
010000000000002090982      2042002                            318231-G       000-00000                               000000000                                                                                 USD            CR0000000000000666660000000000000207124595CSHREC-IR26011500026001                                                                                                                     20260127     
010000000000002100982      2042002                            318231-G       000-00000                               000000000                                                                                 USD            CR0000000000001053539600000000000327324218CSHREC-IR26011900005001                                                                                                                     20260127     
010000000000002110982      2042002                            318231-G       000-00000                               000000000                                                                                 USD            CR0000000000001053539600000000000327324218CSHREC-IR26011900006003                                                                                                                     20260127     
010000000000002120982      2042002                            318231-G       000-00000                               000000000                                                                                 USD            CR0000000000001053539600000000000327324218CSHREC-IR26012000002001                                                                                                                     20260127     
010000000000002130982      2042002                            318052-S       000-00000                               000000000                                                                                 USD            CR0000000000001053539600000000000327324218CSHREC-IR26012000003001                                                                                                                     20260127     
010000000000002140982      2042002                            318231-G       000-00000                               000000000                                                                                 USD            CR0000000000000098000000000000000030447620CSHREC-IR26012000013001                                                                                                                     20260127     
010000000000002150982      2042002                            318231-G       000-00000                               000000000                                                                                 USD            CR0000000000000008500000000000000002640865CSHREC-IR26012400021001                                                                                                                     20260127     
010000000000002160982      2042002                            318231-G       000-00000                               000000000                                                                                 USD            CR0000000000000008300000000000000002578727CSHREC-IR26012400022001                                                                                                                     20260127     
010000000000002170982      2042002                            318231-G       000-00000                               000000000                                                                                 USD            CR0000000000000040000000000000000012427600CSHREC-IR26012400036001                                                                                                                     20260127     
010000000000002180982      2042002                            318231-G       000-00000                               000000000                                                                                 USD            CR0000000000000040000000000000000012427600CSHREC-IR26012400038001                                                                                                                     20260127     
010000000000002190982      2042002                            318231-G       000-00000                               000000000                                                                                 USD            CR0000000000000040000000000000000012427600CSHREC-IR26012400042001                                                                                                                     20260127     
010000000000002200982      2042002                            318231-G       000-00000                               000000000                                                                                 USD            CR0000000000000110000000000000000034175900CSHREC-IR26012700008001                                                                                                                     20260127     
010000000000002210982      2042002                            318040-S       000-00000                               000000000                                                                                 USD            CR0000000000000075710000000000000023522340CSHREC-IR26012700013001                                                                                                                     20260127     
010000000000002220982      2042002                            318040-S       000-00000                               000000000                                                                                 USD            CR0000000000000575710000000000000178867340CSHREC-IR26012700014001                                                                                                                     20260127     
010000000000002230982      1731001                            318231-G       000-00000                               000000000                                                                                 USD            DR0000000000000010000000000000000003106900PENFBC-OR25111200001001                                                                                                                     20260127     
010000000000002240982      2732109                            318231-G       000-00000                               000000000                                                                                 USD            DR0000000000000003700000000000000001149553UNCLAM-IR25081900002002                                                                                                                     20260127     
010000000000002250982      2732109                            318231-G       000-00000                               000000000                                                                                 USD            CR0000000000000022598400000000000007021097UNCLAM-IR25092600002001                                                                                                                     20260127     
010000000000002260982      2732109                            318231-G       000-00000                               000000000                                                                                 USD            CR0000000000000022598400000000000007021097UNCLAM-IR25092600003001                                                                                                                     20260127     
010000000000002270982      2732109                            318231-G       000-00000                               000000000                                                                                 USD            CR0000000000000022598400000000000007021097UNCLAM-IR25092600003002                                                                                                                     20260127     
010000000000002280982      2732109                            318231-G       000-00000                               000000000                                                                                 USD            CR0000000000000022598400000000000007021097UNCLAM-IR25092600003003                                                                                                                     20260127     
010000000000002290982      2732109                            318231-G       000-00000                               000000000                                                                                 USD            CR0000000000000022598400000000000007021097UNCLAM-IR25092600003004                                                                                                                     20260127     
010000000000002300982      2732109                            318231-G       000-00000                               000000000                                                                                 USD            CR0000000000000053100000000000000016497639UNCLAM-IR25093000000001                                                                                                                     20260127     
010000000000002310982      2732109                            318231-G       000-00000                               000000000                                                                                 USD            DR0000000000000990000000000000000307583100UNCLAM-IR25101400020002                                                                                                                     20260127     
010000000000002320982      2732109                            318052-S       000-00000                               000000000                                                                                 USD            CR0000000000000000600000000000000000186414UNCLAM-IR25101400046002                                                                                                                     20260127     
010000000000002330982      2732109                            318131-S       000-00000                               000000000                                                                                 USD            CR0000000000000499999900000000000155344969UNCLAM-IR25101400047003                                                                                                                     20260127     
010000000000002340982      2732109                            318231-G       000-00000                               000000000                                                                                 USD            CR0000000000000520000000000000000161558800UNCLAM-IR25101400059004                                                                                                                     20260127     
010000000000002350982      2732109                            318052-S       000-00000                               000000000                                                                                 USD            CR0000000000000001000000000000000000310690UNCLAM-IR25101400064001                                                                                                                     20260127     
010000000000002360982      2732109                            318052-S       000-00000                               000000000                                                                                 USD            CR0000000000000000600000000000000000186414UNCLAM-IR25101400067001                                                                                                                     20260127     
010000000000002370982      2732109                            318231-G       000-00000                               000000000                                                                                 USD            CR0000000000000060000000000000000018641400UNCLAM-IR25101600015001                                                                                                                     20260127     
010000000000002380982      2732109                            318231-G       000-00000                               000000000                                                                                 USD            CR0000000000000062000000000000000019262780UNCLAM-IR25101600016001                                                                                                                     20260127     
